:100000000C9462000C948A000C948A000C948A0070
:100010000C948A000C948A000C948A000C948A0038
:100020000C948A000C948A000C948A000C948A0028
:100030000C948A000C948A000C948A000C948A0018
:100040000C94DE020C948A000C94AC020C94860290
:100050000C948A000C948A000C948A000C948A00F8
:100060000C948A000C948A000000000024002700F1
:100070002A0000000000250028002B0000000008D6
:10008000000201000003040700000000000000005F
:1000900000000000230026002900040404040404D6
:1000A0000404020202020202030303030303010227
:1000B00004081020408001020408102001020408F6
:1000C00010206D0311241FBECFEFD8E0DEBFCDBFDF
:1000D00011E0A0E0B1E0E4E0FBE002C005900D9289
:1000E000AE32B107D9F721E0AEE2B1E001C01D9216
:1000F000A63EB207E1F710E0C2E6D0E004C02197C7
:10010000FE010E947A05C136D107C9F70E94AC03EF
:100110000C9480050C940000AF92BF92CF92DF92B6
:10012000EF92FF920F931F93CF93DF936C017B01AC
:100130008B01040F151FEB015E01AE18BF08C0173D
:10014000D10759F06991D601ED91FC910190F081B0
:10015000E02DC6010995892B79F7C501DF91CF9173
:100160001F910F91FF90EF90DF90CF90BF90AF90D5
:100170000895FC01538D448D252F30E0842F90E0AD
:10018000821B930B541710F0CF9608950197089592
:10019000FC01918D828D981761F0A28DAE0FBF2F5B
:1001A000B11D5D968C91928D9F5F9F73928F90E0B1
:1001B00008958FEF9FEF0895FC01918D828D981720
:1001C00031F0828DE80FF11D858D90E008958FEF5D
:1001D0009FEF0895FC01918D228D892F90E0805C26
:1001E0009F4F821B91098F739927089589E391E0AE
:1001F0000E94EA0021E0892B09F420E0822F089573
:1002000080E090E0892B29F00E94F60081110C9487
:1002100000000895FC01A48DA80FB92FB11DA35AA9
:10022000BF4F2C91848D90E001968F739927848F16
:10023000A689B7892C93A089B1898C918370806439
:100240008C93938D848D981306C00288F389E02DDA
:1002500080818F7D80830895EF92FF920F931F938B
:10026000CF93DF93EC0181E0888F9B8D8C8D981369
:100270001AC0E889F989808185FF15C09FB7F89475
:10028000EE89FF896083E889F989808183708064C1
:1002900080839FBF81E090E0DF91CF911F910F910C
:1002A000FF90EF900895F62E0B8D10E00F5F1F4F1B
:1002B0000F731127E02E8C8D8E110CC00FB607FC2A
:1002C000FACFE889F989808185FFF5CFCE010E94B8
:1002D0000A01F1CFEB8DEC0FFD2FF11DE35AFF4F1B
:1002E000F0829FB7F8940B8FEA89FB898081806246
:1002F000CFCFCF93DF93EC01888D8823B9F0AA8903
:10030000BB89E889F9898C9185FD03C0808186FDD0
:100310000DC00FB607FCF7CF8C9185FFF2CF80811F
:1003200085FFEDCFCE010E940A01E9CFDF91CF9189
:100330000895833081F028F4813099F08230A9F05B
:1003400008958730A9F08830C9F08430B1F48091E5
:1003500080008F7D03C0809180008F778093800024
:10036000089584B58F7784BD089584B58F7DFBCFC4
:100370008091B0008F778093B00008958091B00095
:100380008F7DF9CF1F93CF93DF93282F30E0F901B2
:10039000E458FF4F8491F901E255FF4FD491F901E0
:1003A000E656FF4FC491CC23A9F0162F81110E946D
:1003B0009901EC2FF0E0EE0FFF1FEE58FF4FA591D3
:1003C000B4918FB7F894EC91111108C0D095DE2349
:1003D000DC938FBFDF91CF911F910895DE2BF8CF73
:1003E000CF93DF9390E0FC01E255FF4F24918656B6
:1003F0009F4FFC0184918823D1F090E0880F991FD2
:10040000FC01E859FF4FA591B491FC01EE58FF4F54
:10041000C591D49161110EC09FB7F8948C91E22FD1
:10042000E0958E238C932881E223E8839FBFDF91A0
:10043000CF9108958FB7F894EC91E22BEC938FBF96
:10044000F6CF3FB7F8948091330190913401A09199
:100450003501B091360126B5A89B05C02F3F19F094
:100460000196A11DB11D3FBFBA2FA92F982F882734
:10047000BC01CD01620F711D811D911D42E0660F0F
:10048000771F881F991F4A95D1F708958F929F92E1
:10049000AF92BF92CF92DF92EF92FF926B017C01FD
:1004A0000E9421024B015C01C114D104E104F1045A
:1004B000B9F00E942102681979098A099B09683EEE
:1004C00073408105910580F321E0C21AD108E1084B
:1004D000F10888EE880E83E0981EA11CB11CE4CFC1
:1004E000FF90EF90DF90CF90BF90AF909F908F9054
:1004F0000895FC0101900020E9F73197AF01481BF6
:10050000590BBC0189E391E00C948C001F920F926F
:100510000FB60F9211242F933F934F935F936F93D6
:100520007F938F939F93AF93BF93EF93FF9389E351
:1005300091E00E940A01FF91EF91BF91AF919F91CD
:100540008F917F916F915F914F913F912F910F907C
:100550000FBE0F901F9018951F920F920FB60F921B
:1005600011242F938F939F93EF93FF93E091490171
:10057000F0914A018081E0914F01F091500182FD9C
:100580001BC09081809152018F5F8F732091530126
:10059000821741F0E0915201F0E0E75CFE4F958F49
:1005A00080935201FF91EF919F918F912F910F9026
:1005B0000FBE0F901F9018958081F4CF1F920F925D
:1005C0000FB60F9211242F933F938F939F93AF9366
:1005D000BF9380912F0190913001A0913101B09192
:1005E000320130912E0123E0230F2D3758F501966B
:1005F000A11DB11D20932E0180932F0190933001F6
:10060000A0933101B0933201809133019091340174
:10061000A0913501B09136010196A11DB11D8093C5
:10062000330190933401A0933501B0933601BF910B
:10063000AF919F918F913F912F910F900FBE0F908F
:100640001F90189526E8230F0296A11DB11DD2CF49
:10065000CF92DF92EF92FF920F931F93E82FF92F23
:1006600005C0015011092109310961F190819623DA
:100670009417B9F305C0015011092109310911F18D
:10068000908196239413F7CFC12CD12CE12CF12C1F
:100690000AC08FEFC81AD80AE80AF80A0C151D0517
:1006A0002E053F0579F080818623841791F36C2D08
:1006B0007D2D8E2D9F2D1F910F91FF90EF90DF903C
:1006C000CF90089560E070E080E090E01F910F917E
:1006D000FF90EF90DF90CF900895E9E3F1E013826F
:1006E000128288EE93E0A0E0B0E084839583A68335
:1006F000B78384E091E09183808385EC90E09587D7
:10070000848784EC90E09787868780EC90E0918BDB
:10071000808B81EC90E0938B828B82EC90E0958BC8
:10072000848B86EC90E0978B868B118E128E138EC5
:10073000148E61E088E00E94F00160E087E00E9492
:10074000F001E6EDF1E088E090E09183808387E0BE
:1007500090E0938382830895CF93DF93CDB7DEB784
:10076000A1970FB6F894DEBF0FBECDBF789484B5C5
:10077000826084BD84B5816084BD85B5826085BD9D
:1007800085B5816085BD80916E00816080936E002B
:10079000109281008091810082608093810080911D
:1007A00081008160809381008091800081608093CE
:1007B00080008091B10084608093B1008091B0008E
:1007C00081608093B00080917A00846080937A0089
:1007D00080917A00826080937A0080917A008160B3
:1007E00080937A0080917A00806880937A001092DA
:1007F000C10060E082E00E94F001E0914901F091C7
:100800004A0182E08083E0914501F0914601108227
:10081000E0914701F09148018FEC808310925101E3
:10082000E0914D01F0914E0186E08083E0914B0113
:10083000F0914C01808180618083E0914B01F091C7
:100840004C01808188608083E0914B01F0914C01E4
:10085000808180688083E0914B01F0914C01808120
:100860008F7D80833AE0832E912CA12CB12C20E047
:10087000222E20E0322EEEE7F0E08491E0EBF0E073
:10088000F490ECE9F0E0E490EE2009F4E5C0811189
:100890000E949901EE2DF0E0EE0FFF1FE057FF4F91
:1008A000A591B4918C91F82209F4D6C060E08091B2
:1008B000D6010E94C20183E090E00197F1F761E068
:1008C0008091D6010E94C20183E290E00197F1F786
:1008D00060E08091D6010E94C2018091D801909180
:1008E000D9019927FC01E255FF4F6491FC01E656BE
:1008F000FF4FE491F0E0EE0FFF1FE057FF4F8591AF
:10090000949100E412E42FE030E0462F0E94280387
:100910002B013C01411451046104710439F0FFEFD3
:100920004F1A5F0A6F0A7F0A8FE078224092DA013D
:100930005092DB016092DC017092DD01C301B201D3
:100940002AE330E040E050E00E945B0569017A0153
:10095000C092DE01D092DF01E092E001F092E1016D
:10096000C301B20124E930E040E050E00E945B05A1
:100970002093E2013093E3014093E4015093E501B9
:10098000D0923801C09237010D2C000CEE08FF0800
:10099000F7FE49C06DE289E391E00E942C01222715
:1009A0003327A9012C193D094E095F0919A2FE013F
:1009B000B1967F01CA01B901A50194010E943905D0
:1009C000605DF70162937F012115310541055105F5
:1009D00089F7E114F10419F0C7010E94790282E15C
:1009E00091E00E94790285E191E00E947902809174
:1009F0003701909138010F9764F588E191E00E94EA
:100A0000790260E177E280E090E00E9446022114E2
:100A1000310409F430CF0E94F600882309F427CF6F
:100A20000E94000024CFA701960119A2CE01819651
:100A30007C01CA01B901A50194010E943905605DDC
:100A4000F70162937F01211531054105510589F7B1
:100A5000C0CF8FE191E0D3CF83E291E00E94790291
:100A600085E191E00E94790268EC70E080E090E01E
:100A7000CCCFA1E21A2EAA1BBB1BFD010DC0AA1FE1
:100A8000BB1FEE1FFF1FA217B307E407F50720F0F7
:100A9000A21BB30BE40BF50B661F771F881F991F72
:100AA0001A9469F760957095809590959B01AC01BB
:100AB000BD01CF010895052E97FB1EF400940E94FE
:100AC000720557FD07D00E94390507FC03D04EF48C
:100AD0000C94720550954095309521953F4F4F4F9E
:100AE0005F4F089590958095709561957F4F8F4FDA
:100AF0009F4F0895EE0FFF1F0590F491E02D09948C
:040B0000F894FFCF97
:100B0400000000002C018C00B9007901EA00C80043
:100B1400DC00636D000D0A00506572746F21004F94
:0E0B24004B21004573706572616E646F0000B6
:00000001FF
